{
  "_format": "hh-sol-artifact-1",
  "contractName": "ZorzalPresale",
  "sourceName": "solidity/contracts/ZorzalPresale.sol",
  "abi": [
    {
      "inputs": [
        {
          "internalType": "address",
          "name": "_teamWallet",
          "type": "address"
        }
      ],
      "stateMutability": "nonpayable",
      "type": "constructor"
    },
    {
      "inputs": [
        {
          "internalType": "address[]",
          "name": "_investor",
          "type": "address[]"
        }
      ],
      "name": "addToWhitelist",
      "outputs": [],
      "stateMutability": "nonpayable",
      "type": "function"
    },
    {
      "inputs": [],
      "name": "burnTokens",
      "outputs": [],
      "stateMutability": "nonpayable",
      "type": "function"
    },
    {
      "inputs": [
        {
          "internalType": "address",
          "name": "",
          "type": "address"
        }
      ],
      "name": "claimReady",
      "outputs": [
        {
          "internalType": "uint256",
          "name": "",
          "type": "uint256"
        }
      ],
      "stateMutability": "view",
      "type": "function"
    },
    {
      "inputs": [],
      "name": "claimTokens",
      "outputs": [],
      "stateMutability": "nonpayable",
      "type": "function"
    },
    {
      "inputs": [],
      "name": "cooldownTime",
      "outputs": [
        {
          "internalType": "uint256",
          "name": "",
          "type": "uint256"
        }
      ],
      "stateMutability": "view",
      "type": "function"
    },
    {
      "inputs": [],
      "name": "deadWallet",
      "outputs": [
        {
          "internalType": "address",
          "name": "",
          "type": "address"
        }
      ],
      "stateMutability": "view",
      "type": "function"
    },
    {
      "inputs": [],
      "name": "ending",
      "outputs": [
        {
          "internalType": "uint256",
          "name": "",
          "type": "uint256"
        }
      ],
      "stateMutability": "view",
      "type": "function"
    },
    {
      "inputs": [],
      "name": "invest",
      "outputs": [],
      "stateMutability": "payable",
      "type": "function"
    },
    {
      "inputs": [
        {
          "internalType": "address",
          "name": "",
          "type": "address"
        }
      ],
      "name": "invested",
      "outputs": [
        {
          "internalType": "uint256",
          "name": "",
          "type": "uint256"
        }
      ],
      "stateMutability": "view",
      "type": "function"
    },
    {
      "inputs": [
        {
          "internalType": "address",
          "name": "",
          "type": "address"
        }
      ],
      "name": "investorBalance",
      "outputs": [
        {
          "internalType": "uint256",
          "name": "",
          "type": "uint256"
        }
      ],
      "stateMutability": "view",
      "type": "function"
    },
    {
      "inputs": [],
      "name": "owner",
      "outputs": [
        {
          "internalType": "address",
          "name": "",
          "type": "address"
        }
      ],
      "stateMutability": "view",
      "type": "function"
    },
    {
      "inputs": [],
      "name": "presaleStarted",
      "outputs": [
        {
          "internalType": "bool",
          "name": "",
          "type": "bool"
        }
      ],
      "stateMutability": "view",
      "type": "function"
    },
    {
      "inputs": [
        {
          "internalType": "contract IERC20",
          "name": "_token",
          "type": "address"
        }
      ],
      "name": "setToken",
      "outputs": [],
      "stateMutability": "nonpayable",
      "type": "function"
    },
    {
      "inputs": [
        {
          "internalType": "uint256",
          "name": "_presaleTime",
          "type": "uint256"
        }
      ],
      "name": "startPresale",
      "outputs": [],
      "stateMutability": "nonpayable",
      "type": "function"
    },
    {
      "inputs": [],
      "name": "token",
      "outputs": [
        {
          "internalType": "contract IERC20",
          "name": "",
          "type": "address"
        }
      ],
      "stateMutability": "view",
      "type": "function"
    },
    {
      "inputs": [],
      "name": "tokensPerBNB",
      "outputs": [
        {
          "internalType": "uint256",
          "name": "",
          "type": "uint256"
        }
      ],
      "stateMutability": "view",
      "type": "function"
    },
    {
      "inputs": [],
      "name": "tokensSold",
      "outputs": [
        {
          "internalType": "uint256",
          "name": "",
          "type": "uint256"
        }
      ],
      "stateMutability": "view",
      "type": "function"
    },
    {
      "inputs": [
        {
          "internalType": "address",
          "name": "",
          "type": "address"
        }
      ],
      "name": "whitelist",
      "outputs": [
        {
          "internalType": "bool",
          "name": "",
          "type": "bool"
        }
      ],
      "stateMutability": "view",
      "type": "function"
    },
    {
      "inputs": [],
      "name": "withdrawBnbs",
      "outputs": [],
      "stateMutability": "nonpayable",
      "type": "function"
    },
    {
      "inputs": [
        {
          "internalType": "address",
          "name": "",
          "type": "address"
        }
      ],
      "name": "withdrawableBalance",
      "outputs": [
        {
          "internalType": "uint256",
          "name": "",
          "type": "uint256"
        }
      ],
      "stateMutability": "view",
      "type": "function"
    }
  ],
  "bytecode": "0x60806040526002805460ff60a01b19169055611f40600355600580546001600160a81b03191662dead001790556202a30060065534801561003f57600080fd5b5060405161133238038061133283398101604081905261005e91610088565b6001600081905580546001600160a01b0319166001600160a01b03929092169190911790556100b8565b60006020828403121561009a57600080fd5b81516001600160a01b03811681146100b157600080fd5b9392505050565b61126b806100c76000396000f3fe60806040526004361061011f5760003560e01c80637f649783116100a0578063a132aad111610064578063a132aad114610338578063b319c6b714610358578063e8b5e51f1461036e578063ea4dbf2214610376578063fc0c546a146103a357600080fd5b80637f6497831461027557806385141a77146102955780638da5cb5b146102d257806394033c81146102f25780639b19251a1461030857600080fd5b806339499388116100e757806339499388146101f257806348c54b9d14610207578063518ab2a81461021c57806366b3f6bf146102325780636f265b241461025f57600080fd5b806302b629381461012457806304549d6f1461016457806308003f781461018e578063144fa6d7146101a557806333941681146101c5575b600080fd5b34801561013057600080fd5b5061015161013f366004610feb565b600b6020526000908152604090205481565b6040519081526020015b60405180910390f35b34801561017057600080fd5b5060055461017e9060ff1681565b604051901515815260200161015b565b34801561019a57600080fd5b506101a36103c3565b005b3480156101b157600080fd5b506101a36101c0366004610feb565b61054b565b3480156101d157600080fd5b506101516101e0366004610feb565b600a6020526000908152604090205481565b3480156101fe57600080fd5b506101a36105f6565b34801561021357600080fd5b506101a361065e565b34801561022857600080fd5b5061015160075481565b34801561023e57600080fd5b5061015161024d366004610feb565b60096020526000908152604090205481565b34801561026b57600080fd5b5061015160035481565b34801561028157600080fd5b506101a3610290366004611025565b610a76565b3480156102a157600080fd5b506005546102ba9061010090046001600160a01b031681565b6040516001600160a01b03909116815260200161015b565b3480156102de57600080fd5b506001546102ba906001600160a01b031681565b3480156102fe57600080fd5b5061015160045481565b34801561031457600080fd5b5061017e610323366004610feb565b60086020526000908152604090205460ff1681565b34801561034457600080fd5b506101a36103533660046110de565b610b70565b34801561036457600080fd5b5061015160065481565b6101a3610c0a565b34801561038257600080fd5b50610151610391366004610feb565b600c6020526000908152604090205481565b3480156103af57600080fd5b506002546102ba906001600160a01b031681565b6001546001600160a01b031633146103f65760405162461bcd60e51b81526004016103ed906110f7565b60405180910390fd5b60045442116104475760405162461bcd60e51b815260206004820152601b60248201527f50726573616c65206d75737420686176652066696e69736865642e000000000060448201526064016103ed565b6002546040516370a0823160e01b81523060048201526000916001600160a01b0316906370a0823190602401602060405180830381865afa158015610490573d6000803e3d6000fd5b505050506040513d601f19601f820116820180604052508101906104b49190611127565b90506000600754826104c69190611156565b60025460055460405163a9059cbb60e01b81526001600160a01b036101009092048216600482015260248101849052929350169063a9059cbb906044016020604051808303816000875af1158015610522573d6000803e3d6000fd5b505050506040513d601f19601f82011682018060405250810190610546919061116d565b505050565b6001546001600160a01b031633146105755760405162461bcd60e51b81526004016103ed906110f7565b600254600160a01b900460ff16156105cf5760405162461bcd60e51b815260206004820152601a60248201527f546f6b656e20697320616c726561647920696e7365727465642e00000000000060448201526064016103ed565b600280546001600160a81b0319166001600160a01b0390921691909117600160a01b179055565b6001546001600160a01b031633146106205760405162461bcd60e51b81526004016103ed906110f7565b60015460405147916001600160a01b03169082156108fc029083906000818181858888f1935050505015801561065a573d6000803e3d6000fd5b5050565b600260005414156106b15760405162461bcd60e51b815260206004820152601f60248201527f5265656e7472616e637947756172643a207265656e7472616e742063616c6c0060448201526064016103ed565b600260009081553381526008602052604090205460ff166107145760405162461bcd60e51b815260206004820152601d60248201527f596f75206d757374206265206f6e207468652077686974656c6973742e00000060448201526064016103ed565b60045442116107655760405162461bcd60e51b815260206004820152601b60248201527f50726573616c65206d75737420686176652066696e69736865642e000000000060448201526064016103ed565b336000908152600c60205260409020544210156107bb5760405162461bcd60e51b81526020600482015260146024820152732cb7ba9031b0b713ba1031b630b4b6903737bb9760611b60448201526064016103ed565b6002546040516370a0823160e01b81523060048201526000916001600160a01b0316906370a0823190602401602060405180830381865afa158015610804573d6000803e3d6000fd5b505050506040513d601f19601f820116820180604052508101906108289190611127565b90506000811161087a5760405162461bcd60e51b815260206004820152601e60248201527f496e73756666696369656e7420636f6e74726163742062616c616e63652e000060448201526064016103ed565b336000908152600a60205260409020546108d65760405162461bcd60e51b815260206004820152601e60248201527f496e73756666696369656e7420696e766573746f722062616c616e63652e000060448201526064016103ed565b336000908152600a60205260408120546108f5906109c4612710610eec565b336000908152600b602052604090205490915081106109b757600254336000818152600b60205260409081902054905163a9059cbb60e01b8152600481019290925260248201526001600160a01b039091169063a9059cbb906044016020604051808303816000875af1158015610970573d6000803e3d6000fd5b505050506040513d601f19601f82011682018060405250810190610994919061116d565b50336000908152600a60209081526040808320839055600b909152812055610a6d565b6006546109c4904261118f565b336000908152600c6020908152604080832093909355600b905290812080548392906109f1908490611156565b909155505060025460405163a9059cbb60e01b8152336004820152602481018390526001600160a01b039091169063a9059cbb906044016020604051808303816000875af1158015610a47573d6000803e3d6000fd5b505050506040513d601f19601f82011682018060405250810190610a6b919061116d565b505b50506001600055565b6001546001600160a01b03163314610aa05760405162461bcd60e51b81526004016103ed906110f7565b60005b815181101561065a5760006001600160a01b0316828281518110610ac957610ac96111a7565b60200260200101516001600160a01b03161415610b1b5760405162461bcd60e51b815260206004820152601060248201526f24b73b30b634b21030b2323932b9b99760811b60448201526064016103ed565b6000828281518110610b2f57610b2f6111a7565b6020908102919091018101516001600160a01b03166000908152600890915260409020805460ff191660011790555080610b68816111bd565b915050610aa3565b6001546001600160a01b03163314610b9a5760405162461bcd60e51b81526004016103ed906110f7565b60055460ff1615610bed5760405162461bcd60e51b815260206004820152601860248201527f50726573616c6520616c726561647920737461727465642e000000000000000060448201526064016103ed565b610bf7814261118f565b600455506005805460ff19166001179055565b60026000541415610c5d5760405162461bcd60e51b815260206004820152601f60248201527f5265656e7472616e637947756172643a207265656e7472616e742063616c6c0060448201526064016103ed565b600260009081553381526008602052604090205460ff16610cc05760405162461bcd60e51b815260206004820152601d60248201527f596f75206d757374206265206f6e207468652077686974656c6973742e00000060448201526064016103ed565b60055460ff16610d125760405162461bcd60e51b815260206004820152601a60248201527f50726573616c65206d757374206861766520737461727465642e00000000000060448201526064016103ed565b600454421115610d585760405162461bcd60e51b8152602060048201526011602482015270283932b9b0b632903334b734b9b432b21760791b60448201526064016103ed565b3360009081526009602052604081208054349290610d7790849061118f565b90915550503360009081526009602052604090205467016345785d8a00001115610df95760405162461bcd60e51b815260206004820152602d60248201527f596f757220696e766573746d656e742073686f756c64206265206d6f7265207460448201526c3430b71018171898102127211760991b60648201526084016103ed565b33600090815260096020526040902054678ac7230489e800001015610e6e5760405162461bcd60e51b815260206004820152602560248201527f596f757220696e766573746d656e742063616e6e6f7420657863656564203130604482015264102127211760d91b60648201526084016103ed565b600060035434610e7e91906111d8565b336000908152600a6020526040812080549293508392909190610ea290849061118f565b9091555050336000908152600b602052604081208054839290610ec690849061118f565b925050819055508060076000828254610edf919061118f565b9091555050600160005550565b600080610f026001600160801b0384168661120d565b90506000610f196001600160801b03851687611221565b90506000610f306001600160801b0386168761120d565b90506000610f476001600160801b03871688611221565b90506001600160801b038616610f5d82856111d8565b610f67919061120d565b610f7183856111d8565b610f7b83876111d8565b6001600160801b038916610f8f86896111d8565b610f9991906111d8565b610fa3919061118f565b610fad919061118f565b610fb7919061118f565b98975050505050505050565b6001600160a01b0381168114610fd857600080fd5b50565b8035610fe681610fc3565b919050565b600060208284031215610ffd57600080fd5b813561100881610fc3565b9392505050565b634e487b7160e01b600052604160045260246000fd5b6000602080838503121561103857600080fd5b823567ffffffffffffffff8082111561105057600080fd5b818501915085601f83011261106457600080fd5b8135818111156110765761107661100f565b8060051b604051601f19603f8301168101818110858211171561109b5761109b61100f565b6040529182528482019250838101850191888311156110b957600080fd5b938501935b82851015610fb7576110cf85610fdb565b845293850193928501926110be565b6000602082840312156110f057600080fd5b5035919050565b6020808252601690820152752cb7ba9036bab9ba103132903a34329037bbb732b91760511b604082015260600190565b60006020828403121561113957600080fd5b5051919050565b634e487b7160e01b600052601160045260246000fd5b60008282101561116857611168611140565b500390565b60006020828403121561117f57600080fd5b8151801515811461100857600080fd5b600082198211156111a2576111a2611140565b500190565b634e487b7160e01b600052603260045260246000fd5b60006000198214156111d1576111d1611140565b5060010190565b60008160001904831182151516156111f2576111f2611140565b500290565b634e487b7160e01b600052601260045260246000fd5b60008261121c5761121c6111f7565b500490565b600082611230576112306111f7565b50069056fea26469706673582212200cc7e1eea38c74a0801e76f17eb0bb2156957c10e71738b30714da2ac93c520c64736f6c634300080a0033",
  "linkReferences": {},
  "deployedLinkReferences": {},
  "source": "// SPDX-License-Identifier: MIT\npragma solidity ^0.8.6;\n\n// Imports\nimport \"./Libraries.sol\";\n\ncontract FirstPresale is ReentrancyGuard {\n    address public owner; // Dueo del contrato.\n    IERC20 public token; // MYM Token.\n    bool private tokenAvailable = false;\n    uint public tokensPerBNB = 8000; // Cantidad de MYMs que se van a repartir por cada BNB aportado.\n    uint public ending; // Tiempo que va finalizar la preventa.\n    bool public presaleStarted = false; // Indica si la preventa ha sido iniciada o no.\n    address public deadWallet = 0x000000000000000000000000000000000000dEaD; // Wallet de quemado.\n    uint public cooldownTime = 30 days;\n    uint public tokensSold;\n\n    mapping(address => bool) public whitelist; // Whitelist de inversores permitidos en la preventa.\n    mapping(address => uint) public invested; // Cantidad de BNBs que ha invertido cada inversor en la preventa.\n    mapping(address => uint) public investorBalance;\n    mapping(address => uint) public withdrawableBalance;\n    mapping(address => uint) public claimReady;\n\n    constructor(address _teamWallet) {\n        owner = _teamWallet;\n    }\n\n    modifier onlyOwner() {\n        require(msg.sender == owner, 'You must be the owner.');\n        _;\n    }\n\n    /**\n     * @notice Funcin que actualiza el token en el contrato (Solo se puede hacer 1 vez).\n     * @param _token Direccin del contrato del token.\n     */\n    function setToken(IERC20 _token) public onlyOwner {\n        require(!tokenAvailable, \"Token is already inserted.\");\n        token = _token;\n        tokenAvailable = true;\n    }\n\n    /**\n     * @notice Funcin que permite aadir inversores a la whitelist.\n     * @param _investor Direcciones de los inversores que entran en la whitelist.\n     */\n    function addToWhitelist(address[] memory _investor) public onlyOwner {\n        for (uint _i = 0; _i < _investor.length; _i++) {\n            require(_investor[_i] != address(0), 'Invalid address.');\n            address _investorAddress = _investor[_i];\n            whitelist[_investorAddress] = true;\n        }\n    }\n\n    /**\n     * @notice Funcin que inicia la Preventa (Solo se puede iniciar una vez).\n     * @param _presaleTime Tiempo que va a durar la preventa.\n     */\n    function startPresale(uint _presaleTime) public onlyOwner {\n        require(!presaleStarted, \"Presale already started.\");\n\n        ending = block.timestamp + _presaleTime;\n        presaleStarted = true;\n    }\n\n    /**\n     * @notice Funcin que te permite comprar MYMs. \n     */\n    function invest() public payable nonReentrant {\n        require(whitelist[msg.sender], \"You must be on the whitelist.\");\n        require(presaleStarted, \"Presale must have started.\");\n        require(block.timestamp <= ending, \"Presale finished.\");\n        invested[msg.sender] += msg.value; // Actualiza la inversin del inversor.\n        require(invested[msg.sender] >= 0.10 ether, \"Your investment should be more than 0.10 BNB.\");\n        require(invested[msg.sender] <= 10 ether, \"Your investment cannot exceed 10 BNB.\");\n\n        uint _investorTokens = msg.value * tokensPerBNB; // Tokens que va a recibir el inversor.\n        investorBalance[msg.sender] += _investorTokens;\n        withdrawableBalance[msg.sender] += _investorTokens;\n        tokensSold += _investorTokens;\n    }\n\n    /**\n     * @notice Calcula el % de un nmero.\n     * @param x Nmero.\n     * @param y % del nmero.\n     * @param scale Divisin.\n     */\n    function mulScale (uint x, uint y, uint128 scale) internal pure returns (uint) {\n        uint a = x / scale;\n        uint b = x % scale;\n        uint c = y / scale;\n        uint d = y % scale;\n\n        return a * c * scale + a * d + b * c + b * d / scale;\n    }\n\n    /**\n     * @notice Funcin que permite a los inversores hacer claim de sus tokens disponibles.\n     */\n    function claimTokens() public nonReentrant {\n        require(whitelist[msg.sender], \"You must be on the whitelist.\");\n        require(block.timestamp > ending, \"Presale must have finished.\");\n        require(claimReady[msg.sender] <= block.timestamp, \"You can't claim now.\");\n        uint _contractBalance = token.balanceOf(address(this));\n        require(_contractBalance > 0, \"Insufficient contract balance.\");\n        require(investorBalance[msg.sender] > 0, \"Insufficient investor balance.\");\n\n        uint _withdrawableTokensBalance = mulScale(investorBalance[msg.sender], 2500, 10000); // 2500 basis points = 25%.\n\n        // Si tu balance es menor a la cantidad que puedes retirar directamente te transfiere todo tu saldo.\n        if(withdrawableBalance[msg.sender] <= _withdrawableTokensBalance) {\n            token.transfer(msg.sender, withdrawableBalance[msg.sender]);\n\n            investorBalance[msg.sender] = 0;\n            withdrawableBalance[msg.sender] = 0;\n        } else {\n            claimReady[msg.sender] = block.timestamp + cooldownTime; // Actualiza cuando ser el prximo claim.\n\n            withdrawableBalance[msg.sender] -= _withdrawableTokensBalance; // Actualiza el balance del inversor.\n\n            token.transfer(msg.sender, _withdrawableTokensBalance); // Transfiere los tokens.\n        }\n    }\n\n    /**\n     * @notice Funcin que permite retirar los BNBs del contrato a la direccin del owner.\n     */\n    function withdrawBnbs() public onlyOwner {\n        uint _bnbBalance = address(this).balance;\n        payable(owner).transfer(_bnbBalance);\n    }\n\n    /**\n     * @notice Funcin que quema los tokens que sobran en la preventa.\n     */\n    function burnTokens() public onlyOwner {\n        require(block.timestamp > ending, \"Presale must have finished.\");\n        \n        uint _contractBalance = token.balanceOf(address(this));\n        uint _tokenBalance = _contractBalance - tokensSold;\n        token.transfer(deadWallet, _tokenBalance);\n    }\n}",
  "sourcePath": "C:\\Users\\Unai\\Documents\\01_CODING\\00_BlockChain proyectos\\JOAN - copia\\src\\contracts\\FirstPresale.sol",
  "compiler": {
    "name": "solc",
    "version": "0.8.6+commit.11564f7e.Emscripten.clang"
  },
  "schemaVersion": "3.4.3",
  "updatedAt": "2021-11-25T16:20:13.344Z",
  "networkType": "ethereum",
  "devdoc": {
    "kind": "dev",
    "methods": {
      "addToWhitelist(address[])": {
        "params": {
          "_investor": "Direcciones de los inversores que entran en la whitelist."
        }
      },
      "setToken(address)": {
        "params": {
          "_token": "Direccin del contrato del token."
        }
      },
      "startPresale(uint256)": {
        "params": {
          "_presaleTime": "Tiempo que va a durar la preventa."
        }
      }
    },
    "version": 1
  },
  "userdoc": {
    "kind": "user",
    "methods": {
      "addToWhitelist(address[])": {
        "notice": "Funcin que permite aadir inversores a la whitelist."
      },
      "burnTokens()": {
        "notice": "Funcin que quema los tokens que sobran en la preventa."
      },
      "claimTokens()": {
        "notice": "Funcin que permite a los inversores hacer claim de sus tokens disponibles."
      },
      "invest()": {
        "notice": "Funcin que te permite comprar MYMs. "
      },
      "setToken(address)": {
        "notice": "Funcin que actualiza el token en el contrato (Solo se puede hacer 1 vez)."
      },
      "startPresale(uint256)": {
        "notice": "Funcin que inicia la Preventa (Solo se puede iniciar una vez)."
      },
      "withdrawBnbs()": {
        "notice": "Funcin que permite retirar los BNBs del contrato a la direccin del owner."
      }
    },
    "version": 1
  }
}