{
  "contractName": "SecondPresale",
  "abi": [
    {
      "inputs": [
        {
          "internalType": "address",
          "name": "_teamWallet",
          "type": "address"
        }
      ],
      "stateMutability": "nonpayable",
      "type": "constructor"
    },
    {
      "inputs": [
        {
          "internalType": "address",
          "name": "",
          "type": "address"
        }
      ],
      "name": "claimReady",
      "outputs": [
        {
          "internalType": "uint256",
          "name": "",
          "type": "uint256"
        }
      ],
      "stateMutability": "view",
      "type": "function",
      "constant": true
    },
    {
      "inputs": [],
      "name": "cooldownTime",
      "outputs": [
        {
          "internalType": "uint256",
          "name": "",
          "type": "uint256"
        }
      ],
      "stateMutability": "view",
      "type": "function",
      "constant": true
    },
    {
      "inputs": [],
      "name": "deadWallet",
      "outputs": [
        {
          "internalType": "address",
          "name": "",
          "type": "address"
        }
      ],
      "stateMutability": "view",
      "type": "function",
      "constant": true
    },
    {
      "inputs": [],
      "name": "ending",
      "outputs": [
        {
          "internalType": "uint256",
          "name": "",
          "type": "uint256"
        }
      ],
      "stateMutability": "view",
      "type": "function",
      "constant": true
    },
    {
      "inputs": [
        {
          "internalType": "address",
          "name": "",
          "type": "address"
        }
      ],
      "name": "invested",
      "outputs": [
        {
          "internalType": "uint256",
          "name": "",
          "type": "uint256"
        }
      ],
      "stateMutability": "view",
      "type": "function",
      "constant": true
    },
    {
      "inputs": [
        {
          "internalType": "address",
          "name": "",
          "type": "address"
        }
      ],
      "name": "investorBalance",
      "outputs": [
        {
          "internalType": "uint256",
          "name": "",
          "type": "uint256"
        }
      ],
      "stateMutability": "view",
      "type": "function",
      "constant": true
    },
    {
      "inputs": [],
      "name": "owner",
      "outputs": [
        {
          "internalType": "address",
          "name": "",
          "type": "address"
        }
      ],
      "stateMutability": "view",
      "type": "function",
      "constant": true
    },
    {
      "inputs": [],
      "name": "presaleStarted",
      "outputs": [
        {
          "internalType": "bool",
          "name": "",
          "type": "bool"
        }
      ],
      "stateMutability": "view",
      "type": "function",
      "constant": true
    },
    {
      "inputs": [],
      "name": "token",
      "outputs": [
        {
          "internalType": "contract IERC20",
          "name": "",
          "type": "address"
        }
      ],
      "stateMutability": "view",
      "type": "function",
      "constant": true
    },
    {
      "inputs": [],
      "name": "tokensPerBNB",
      "outputs": [
        {
          "internalType": "uint256",
          "name": "",
          "type": "uint256"
        }
      ],
      "stateMutability": "view",
      "type": "function",
      "constant": true
    },
    {
      "inputs": [],
      "name": "tokensSold",
      "outputs": [
        {
          "internalType": "uint256",
          "name": "",
          "type": "uint256"
        }
      ],
      "stateMutability": "view",
      "type": "function",
      "constant": true
    },
    {
      "inputs": [
        {
          "internalType": "address",
          "name": "",
          "type": "address"
        }
      ],
      "name": "whitelist",
      "outputs": [
        {
          "internalType": "bool",
          "name": "",
          "type": "bool"
        }
      ],
      "stateMutability": "view",
      "type": "function",
      "constant": true
    },
    {
      "inputs": [
        {
          "internalType": "address",
          "name": "",
          "type": "address"
        }
      ],
      "name": "withdrawableBalance",
      "outputs": [
        {
          "internalType": "uint256",
          "name": "",
          "type": "uint256"
        }
      ],
      "stateMutability": "view",
      "type": "function",
      "constant": true
    },
    {
      "inputs": [
        {
          "internalType": "contract IERC20",
          "name": "_token",
          "type": "address"
        }
      ],
      "name": "setToken",
      "outputs": [],
      "stateMutability": "nonpayable",
      "type": "function"
    },
    {
      "inputs": [
        {
          "internalType": "address[]",
          "name": "_investor",
          "type": "address[]"
        }
      ],
      "name": "addToWhitelist",
      "outputs": [],
      "stateMutability": "nonpayable",
      "type": "function"
    },
    {
      "inputs": [
        {
          "internalType": "uint256",
          "name": "_presaleTime",
          "type": "uint256"
        }
      ],
      "name": "startPresale",
      "outputs": [],
      "stateMutability": "nonpayable",
      "type": "function"
    },
    {
      "inputs": [],
      "name": "invest",
      "outputs": [],
      "stateMutability": "payable",
      "type": "function",
      "payable": true
    },
    {
      "inputs": [],
      "name": "claimTokens",
      "outputs": [],
      "stateMutability": "nonpayable",
      "type": "function"
    },
    {
      "inputs": [],
      "name": "withdrawBnbs",
      "outputs": [],
      "stateMutability": "nonpayable",
      "type": "function"
    },
    {
      "inputs": [],
      "name": "burnTokens",
      "outputs": [],
      "stateMutability": "nonpayable",
      "type": "function"
    }
  ],
  "bytecode": "0x60806040526000600260146101000a81548160ff0219169083151502179055506117706003556000600560006101000a81548160ff02191690831515021790555061dead600560016101000a81548173ffffffffffffffffffffffffffffffffffffffff021916908373ffffffffffffffffffffffffffffffffffffffff16021790555062278d006006553480156200009757600080fd5b506040516200276c3803806200276c8339818101604052810190620000bd919062000124565b600160008190555080600160006101000a81548173ffffffffffffffffffffffffffffffffffffffff021916908373ffffffffffffffffffffffffffffffffffffffff16021790555050620001a9565b6000815190506200011e816200018f565b92915050565b6000602082840312156200013d576200013c6200018a565b5b60006200014d848285016200010d565b91505092915050565b600062000163826200016a565b9050919050565b600073ffffffffffffffffffffffffffffffffffffffff82169050919050565b600080fd5b6200019a8162000156565b8114620001a657600080fd5b50565b6125b380620001b96000396000f3fe60806040526004361061011f5760003560e01c80637f649783116100a0578063a132aad111610064578063a132aad1146103b1578063b319c6b7146103da578063e8b5e51f14610405578063ea4dbf221461040f578063fc0c546a1461044c5761011f565b80637f649783146102ca57806385141a77146102f35780638da5cb5b1461031e57806394033c81146103495780639b19251a146103745761011f565b806339499388116100e7578063394993881461020957806348c54b9d14610220578063518ab2a81461023757806366b3f6bf146102625780636f265b241461029f5761011f565b806302b629381461012457806304549d6f1461016157806308003f781461018c578063144fa6d7146101a357806333941681146101cc575b600080fd5b34801561013057600080fd5b5061014b60048036038101906101469190611971565b610477565b6040516101589190611efb565b60405180910390f35b34801561016d57600080fd5b5061017661048f565b6040516101839190611d05565b60405180910390f35b34801561019857600080fd5b506101a16104a2565b005b3480156101af57600080fd5b506101ca60048036038101906101c59190611a14565b61070d565b005b3480156101d857600080fd5b506101f360048036038101906101ee9190611971565b61084c565b6040516102009190611efb565b60405180910390f35b34801561021557600080fd5b5061021e610864565b005b34801561022c57600080fd5b50610235610965565b005b34801561024357600080fd5b5061024c610ff3565b6040516102599190611efb565b60405180910390f35b34801561026e57600080fd5b5061028960048036038101906102849190611971565b610ff9565b6040516102969190611efb565b60405180910390f35b3480156102ab57600080fd5b506102b4611011565b6040516102c19190611efb565b60405180910390f35b3480156102d657600080fd5b506102f160048036038101906102ec919061199e565b611017565b005b3480156102ff57600080fd5b506103086111cc565b6040516103159190611cc1565b60405180910390f35b34801561032a57600080fd5b506103336111f2565b6040516103409190611cc1565b60405180910390f35b34801561035557600080fd5b5061035e611218565b60405161036b9190611efb565b60405180910390f35b34801561038057600080fd5b5061039b60048036038101906103969190611971565b61121e565b6040516103a89190611d05565b60405180910390f35b3480156103bd57600080fd5b506103d860048036038101906103d39190611a41565b61123e565b005b3480156103e657600080fd5b506103ef61134e565b6040516103fc9190611efb565b60405180910390f35b61040d611354565b005b34801561041b57600080fd5b5061043660048036038101906104319190611971565b61170e565b6040516104439190611efb565b60405180910390f35b34801561045857600080fd5b50610461611726565b60405161046e9190611d20565b60405180910390f35b600b6020528060005260406000206000915090505481565b600560009054906101000a900460ff1681565b600160009054906101000a900473ffffffffffffffffffffffffffffffffffffffff1673ffffffffffffffffffffffffffffffffffffffff163373ffffffffffffffffffffffffffffffffffffffff1614610532576040517f08c379a000000000000000000000000000000000000000000000000000000000815260040161052990611d3b565b60405180910390fd5b6004544211610576576040517f08c379a000000000000000000000000000000000000000000000000000000000815260040161056d90611e9b565b60405180910390fd5b6000600260009054906101000a900473ffffffffffffffffffffffffffffffffffffffff1673ffffffffffffffffffffffffffffffffffffffff166370a08231306040518263ffffffff1660e01b81526004016105d39190611cc1565b60206040518083038186803b1580156105eb57600080fd5b505afa1580156105ff573d6000803e3d6000fd5b505050506040513d601f19601f820116820180604052508101906106239190611a6e565b90506000600754826106359190612059565b9050600260009054906101000a900473ffffffffffffffffffffffffffffffffffffffff1673ffffffffffffffffffffffffffffffffffffffff1663a9059cbb600560019054906101000a900473ffffffffffffffffffffffffffffffffffffffff16836040518363ffffffff1660e01b81526004016106b6929190611cdc565b602060405180830381600087803b1580156106d057600080fd5b505af11580156106e4573d6000803e3d6000fd5b505050506040513d601f19601f8201168201806040525081019061070891906119e7565b505050565b600160009054906101000a900473ffffffffffffffffffffffffffffffffffffffff1673ffffffffffffffffffffffffffffffffffffffff163373ffffffffffffffffffffffffffffffffffffffff161461079d576040517f08c379a000000000000000000000000000000000000000000000000000000000815260040161079490611d3b565b60405180910390fd5b600260149054906101000a900460ff16156107ed576040517f08c379a00000000000000000000000000000000000000000000000000000000081526004016107e490611e7b565b60405180910390fd5b80600260006101000a81548173ffffffffffffffffffffffffffffffffffffffff021916908373ffffffffffffffffffffffffffffffffffffffff1602179055506001600260146101000a81548160ff02191690831515021790555050565b600a6020528060005260406000206000915090505481565b600160009054906101000a900473ffffffffffffffffffffffffffffffffffffffff1673ffffffffffffffffffffffffffffffffffffffff163373ffffffffffffffffffffffffffffffffffffffff16146108f4576040517f08c379a00000000000000000000000000000000000000000000000000000000081526004016108eb90611d3b565b60405180910390fd5b6000479050600160009054906101000a900473ffffffffffffffffffffffffffffffffffffffff1673ffffffffffffffffffffffffffffffffffffffff166108fc829081150290604051600060405180830381858888f19350505050158015610961573d6000803e3d6000fd5b5050565b600260005414156109ab576040517f08c379a00000000000000000000000000000000000000000000000000000000081526004016109a290611edb565b60405180910390fd5b6002600081905550600860003373ffffffffffffffffffffffffffffffffffffffff1673ffffffffffffffffffffffffffffffffffffffff16815260200190815260200160002060009054906101000a900460ff16610a3f576040517f08c379a0000000000000000000000000000000000000000000000000000000008152600401610a3690611ddb565b60405180910390fd5b6004544211610a83576040517f08c379a0000000000000000000000000000000000000000000000000000000008152600401610a7a90611e9b565b60405180910390fd5b42600c60003373ffffffffffffffffffffffffffffffffffffffff1673ffffffffffffffffffffffffffffffffffffffff168152602001908152602001600020541115610b05576040517f08c379a0000000000000000000000000000000000000000000000000000000008152600401610afc90611dfb565b60405180910390fd5b6000600260009054906101000a900473ffffffffffffffffffffffffffffffffffffffff1673ffffffffffffffffffffffffffffffffffffffff166370a08231306040518263ffffffff1660e01b8152600401610b629190611cc1565b60206040518083038186803b158015610b7a57600080fd5b505afa158015610b8e573d6000803e3d6000fd5b505050506040513d601f19601f82011682018060405250810190610bb29190611a6e565b905060008111610bf7576040517f08c379a0000000000000000000000000000000000000000000000000000000008152600401610bee90611dbb565b60405180910390fd5b6000600a60003373ffffffffffffffffffffffffffffffffffffffff1673ffffffffffffffffffffffffffffffffffffffff1681526020019081526020016000205411610c79576040517f08c379a0000000000000000000000000000000000000000000000000000000008152600401610c7090611d9b565b60405180910390fd5b6000610cc9600a60003373ffffffffffffffffffffffffffffffffffffffff1673ffffffffffffffffffffffffffffffffffffffff168152602001908152602001600020546109c461271061174c565b905080600b60003373ffffffffffffffffffffffffffffffffffffffff1673ffffffffffffffffffffffffffffffffffffffff1681526020019081526020016000205411610e8f57600260009054906101000a900473ffffffffffffffffffffffffffffffffffffffff1673ffffffffffffffffffffffffffffffffffffffff1663a9059cbb33600b60003373ffffffffffffffffffffffffffffffffffffffff1673ffffffffffffffffffffffffffffffffffffffff168152602001908152602001600020546040518363ffffffff1660e01b8152600401610dad929190611cdc565b602060405180830381600087803b158015610dc757600080fd5b505af1158015610ddb573d6000803e3d6000fd5b505050506040513d601f19601f82011682018060405250810190610dff91906119e7565b506000600a60003373ffffffffffffffffffffffffffffffffffffffff1673ffffffffffffffffffffffffffffffffffffffff168152602001908152602001600020819055506000600b60003373ffffffffffffffffffffffffffffffffffffffff1673ffffffffffffffffffffffffffffffffffffffff16815260200190815260200160002081905550610fe7565b60065442610e9d9190611f78565b600c60003373ffffffffffffffffffffffffffffffffffffffff1673ffffffffffffffffffffffffffffffffffffffff1681526020019081526020016000208190555080600b60003373ffffffffffffffffffffffffffffffffffffffff1673ffffffffffffffffffffffffffffffffffffffff1681526020019081526020016000206000828254610f2f9190612059565b92505081905550600260009054906101000a900473ffffffffffffffffffffffffffffffffffffffff1673ffffffffffffffffffffffffffffffffffffffff1663a9059cbb33836040518363ffffffff1660e01b8152600401610f93929190611cdc565b602060405180830381600087803b158015610fad57600080fd5b505af1158015610fc1573d6000803e3d6000fd5b505050506040513d601f19601f82011682018060405250810190610fe591906119e7565b505b50506001600081905550565b60075481565b60096020528060005260406000206000915090505481565b60035481565b600160009054906101000a900473ffffffffffffffffffffffffffffffffffffffff1673ffffffffffffffffffffffffffffffffffffffff163373ffffffffffffffffffffffffffffffffffffffff16146110a7576040517f08c379a000000000000000000000000000000000000000000000000000000000815260040161109e90611d3b565b60405180910390fd5b60005b81518110156111c857600073ffffffffffffffffffffffffffffffffffffffff168282815181106110de576110dd612214565b5b602002602001015173ffffffffffffffffffffffffffffffffffffffff16141561113d576040517f08c379a000000000000000000000000000000000000000000000000000000000815260040161113490611d7b565b60405180910390fd5b600082828151811061115257611151612214565b5b602002602001015190506001600860008373ffffffffffffffffffffffffffffffffffffffff1673ffffffffffffffffffffffffffffffffffffffff16815260200190815260200160002060006101000a81548160ff0219169083151502179055505080806111c09061213c565b9150506110aa565b5050565b600560019054906101000a900473ffffffffffffffffffffffffffffffffffffffff1681565b600160009054906101000a900473ffffffffffffffffffffffffffffffffffffffff1681565b60045481565b60086020528060005260406000206000915054906101000a900460ff1681565b600160009054906101000a900473ffffffffffffffffffffffffffffffffffffffff1673ffffffffffffffffffffffffffffffffffffffff163373ffffffffffffffffffffffffffffffffffffffff16146112ce576040517f08c379a00000000000000000000000000000000000000000000000000000000081526004016112c590611d3b565b60405180910390fd5b600560009054906101000a900460ff161561131e576040517f08c379a000000000000000000000000000000000000000000000000000000000815260040161131590611ebb565b60405180910390fd5b804261132a9190611f78565b6004819055506001600560006101000a81548160ff02191690831515021790555050565b60065481565b6002600054141561139a576040517f08c379a000000000000000000000000000000000000000000000000000000000815260040161139190611edb565b60405180910390fd5b6002600081905550600860003373ffffffffffffffffffffffffffffffffffffffff1673ffffffffffffffffffffffffffffffffffffffff16815260200190815260200160002060009054906101000a900460ff1661142e576040517f08c379a000000000000000000000000000000000000000000000000000000000815260040161142590611ddb565b60405180910390fd5b600560009054906101000a900460ff1661147d576040517f08c379a000000000000000000000000000000000000000000000000000000000815260040161147490611d5b565b60405180910390fd5b6004544211156114c2576040517f08c379a00000000000000000000000000000000000000000000000000000000081526004016114b990611e5b565b60405180910390fd5b34600960003373ffffffffffffffffffffffffffffffffffffffff1673ffffffffffffffffffffffffffffffffffffffff16815260200190815260200160002060008282546115119190611f78565b9250508190555067016345785d8a0000600960003373ffffffffffffffffffffffffffffffffffffffff1673ffffffffffffffffffffffffffffffffffffffff1681526020019081526020016000205410156115a2576040517f08c379a000000000000000000000000000000000000000000000000000000000815260040161159990611e3b565b60405180910390fd5b678ac7230489e80000600960003373ffffffffffffffffffffffffffffffffffffffff1673ffffffffffffffffffffffffffffffffffffffff16815260200190815260200160002054111561162c576040517f08c379a000000000000000000000000000000000000000000000000000000000815260040161162390611e1b565b60405180910390fd5b60006003543461163c9190611fff565b905080600a60003373ffffffffffffffffffffffffffffffffffffffff1673ffffffffffffffffffffffffffffffffffffffff168152602001908152602001600020600082825461168d9190611f78565b9250508190555080600b60003373ffffffffffffffffffffffffffffffffffffffff1673ffffffffffffffffffffffffffffffffffffffff16815260200190815260200160002060008282546116e39190611f78565b9250508190555080600760008282546116fc9190611f78565b92505081905550506001600081905550565b600c6020528060005260406000206000915090505481565b600260009054906101000a900473ffffffffffffffffffffffffffffffffffffffff1681565b600080826fffffffffffffffffffffffffffffffff168561176d9190611fce565b90506000836fffffffffffffffffffffffffffffffff168661178f9190612185565b90506000846fffffffffffffffffffffffffffffffff16866117b19190611fce565b90506000856fffffffffffffffffffffffffffffffff16876117d39190612185565b9050856fffffffffffffffffffffffffffffffff1681846117f49190611fff565b6117fe9190611fce565b828461180a9190611fff565b82866118169190611fff565b886fffffffffffffffffffffffffffffffff1685886118359190611fff565b61183f9190611fff565b6118499190611f78565b6118539190611f78565b61185d9190611f78565b9450505050509392505050565b600061187d61187884611f3b565b611f16565b905080838252602082019050828560208602820111156118a05761189f612277565b5b60005b858110156118d057816118b688826118da565b8452602084019350602083019250506001810190506118a3565b5050509392505050565b6000813590506118e981612521565b92915050565b600082601f83011261190457611903612272565b5b813561191484826020860161186a565b91505092915050565b60008151905061192c81612538565b92915050565b6000813590506119418161254f565b92915050565b60008135905061195681612566565b92915050565b60008151905061196b81612566565b92915050565b60006020828403121561198757611986612281565b5b6000611995848285016118da565b91505092915050565b6000602082840312156119b4576119b3612281565b5b600082013567ffffffffffffffff8111156119d2576119d161227c565b5b6119de848285016118ef565b91505092915050565b6000602082840312156119fd576119fc612281565b5b6000611a0b8482850161191d565b91505092915050565b600060208284031215611a2a57611a29612281565b5b6000611a3884828501611932565b91505092915050565b600060208284031215611a5757611a56612281565b5b6000611a6584828501611947565b91505092915050565b600060208284031215611a8457611a83612281565b5b6000611a928482850161195c565b91505092915050565b611aa48161208d565b82525050565b611ab38161209f565b82525050565b611ac2816120e7565b82525050565b6000611ad5601683611f67565b9150611ae082612297565b602082019050919050565b6000611af8601a83611f67565b9150611b03826122c0565b602082019050919050565b6000611b1b601083611f67565b9150611b26826122e9565b602082019050919050565b6000611b3e601e83611f67565b9150611b4982612312565b602082019050919050565b6000611b61601e83611f67565b9150611b6c8261233b565b602082019050919050565b6000611b84601d83611f67565b9150611b8f82612364565b602082019050919050565b6000611ba7601483611f67565b9150611bb28261238d565b602082019050919050565b6000611bca602583611f67565b9150611bd5826123b6565b604082019050919050565b6000611bed602d83611f67565b9150611bf882612405565b604082019050919050565b6000611c10601183611f67565b9150611c1b82612454565b602082019050919050565b6000611c33601a83611f67565b9150611c3e8261247d565b602082019050919050565b6000611c56601b83611f67565b9150611c61826124a6565b602082019050919050565b6000611c79601883611f67565b9150611c84826124cf565b602082019050919050565b6000611c9c601f83611f67565b9150611ca7826124f8565b602082019050919050565b611cbb816120dd565b82525050565b6000602082019050611cd66000830184611a9b565b92915050565b6000604082019050611cf16000830185611a9b565b611cfe6020830184611cb2565b9392505050565b6000602082019050611d1a6000830184611aaa565b92915050565b6000602082019050611d356000830184611ab9565b92915050565b60006020820190508181036000830152611d5481611ac8565b9050919050565b60006020820190508181036000830152611d7481611aeb565b9050919050565b60006020820190508181036000830152611d9481611b0e565b9050919050565b60006020820190508181036000830152611db481611b31565b9050919050565b60006020820190508181036000830152611dd481611b54565b9050919050565b60006020820190508181036000830152611df481611b77565b9050919050565b60006020820190508181036000830152611e1481611b9a565b9050919050565b60006020820190508181036000830152611e3481611bbd565b9050919050565b60006020820190508181036000830152611e5481611be0565b9050919050565b60006020820190508181036000830152611e7481611c03565b9050919050565b60006020820190508181036000830152611e9481611c26565b9050919050565b60006020820190508181036000830152611eb481611c49565b9050919050565b60006020820190508181036000830152611ed481611c6c565b9050919050565b60006020820190508181036000830152611ef481611c8f565b9050919050565b6000602082019050611f106000830184611cb2565b92915050565b6000611f20611f31565b9050611f2c828261210b565b919050565b6000604051905090565b600067ffffffffffffffff821115611f5657611f55612243565b5b602082029050602081019050919050565b600082825260208201905092915050565b6000611f83826120dd565b9150611f8e836120dd565b9250827fffffffffffffffffffffffffffffffffffffffffffffffffffffffffffffffff03821115611fc357611fc26121b6565b5b828201905092915050565b6000611fd9826120dd565b9150611fe4836120dd565b925082611ff457611ff36121e5565b5b828204905092915050565b600061200a826120dd565b9150612015836120dd565b9250817fffffffffffffffffffffffffffffffffffffffffffffffffffffffffffffffff048311821515161561204e5761204d6121b6565b5b828202905092915050565b6000612064826120dd565b915061206f836120dd565b925082821015612082576120816121b6565b5b828203905092915050565b6000612098826120bd565b9050919050565b60008115159050919050565b60006120b68261208d565b9050919050565b600073ffffffffffffffffffffffffffffffffffffffff82169050919050565b6000819050919050565b60006120f2826120f9565b9050919050565b6000612104826120bd565b9050919050565b61211482612286565b810181811067ffffffffffffffff8211171561213357612132612243565b5b80604052505050565b6000612147826120dd565b91507fffffffffffffffffffffffffffffffffffffffffffffffffffffffffffffffff82141561217a576121796121b6565b5b600182019050919050565b6000612190826120dd565b915061219b836120dd565b9250826121ab576121aa6121e5565b5b828206905092915050565b7f4e487b7100000000000000000000000000000000000000000000000000000000600052601160045260246000fd5b7f4e487b7100000000000000000000000000000000000000000000000000000000600052601260045260246000fd5b7f4e487b7100000000000000000000000000000000000000000000000000000000600052603260045260246000fd5b7f4e487b7100000000000000000000000000000000000000000000000000000000600052604160045260246000fd5b600080fd5b600080fd5b600080fd5b600080fd5b6000601f19601f8301169050919050565b7f596f75206d75737420626520746865206f776e65722e00000000000000000000600082015250565b7f50726573616c65206d757374206861766520737461727465642e000000000000600082015250565b7f496e76616c696420616464726573732e00000000000000000000000000000000600082015250565b7f496e73756666696369656e7420696e766573746f722062616c616e63652e0000600082015250565b7f496e73756666696369656e7420636f6e74726163742062616c616e63652e0000600082015250565b7f596f75206d757374206265206f6e207468652077686974656c6973742e000000600082015250565b7f596f752063616e277420636c61696d206e6f772e000000000000000000000000600082015250565b7f596f757220696e766573746d656e742063616e6e6f742065786365656420313060008201527f20424e422e000000000000000000000000000000000000000000000000000000602082015250565b7f596f757220696e766573746d656e742073686f756c64206265206d6f7265207460008201527f68616e20302e313020424e422e00000000000000000000000000000000000000602082015250565b7f50726573616c652066696e69736865642e000000000000000000000000000000600082015250565b7f546f6b656e20697320616c726561647920696e7365727465642e000000000000600082015250565b7f50726573616c65206d75737420686176652066696e69736865642e0000000000600082015250565b7f50726573616c6520616c726561647920737461727465642e0000000000000000600082015250565b7f5265656e7472616e637947756172643a207265656e7472616e742063616c6c00600082015250565b61252a8161208d565b811461253557600080fd5b50565b6125418161209f565b811461254c57600080fd5b50565b612558816120ab565b811461256357600080fd5b50565b61256f816120dd565b811461257a57600080fd5b5056fea26469706673582212206514c97317dae7e1c367fd037464f98ca3183c65350a2d1076850b3287ae990164736f6c63430008060033",
  "immutableReferences": {},
  "source": "// SPDX-License-Identifier: MIT\npragma solidity ^0.8.6;\n\n// Imports\nimport \"./Libraries.sol\";\n\ncontract SecondPresale is ReentrancyGuard {\n    address public owner; // Dueo del contrato.\n    IERC20 public token; // MYM Token.\n    bool private tokenAvailable = false;\n    uint public tokensPerBNB = 6000; // Cantidad de MYMs que se van a repartir por cada BNB aportado.\n    uint public ending; // Tiempo que va finalizar la preventa.\n    bool public presaleStarted = false; // Indica si la preventa ha sido iniciada o no.\n    address public deadWallet = 0x000000000000000000000000000000000000dEaD; // Wallet de quemado.\n    uint public cooldownTime = 30 days;\n    uint public tokensSold;\n\n    mapping(address => bool) public whitelist; // Whitelist de inversores permitidos en la preventa.\n    mapping(address => uint) public invested; // Cantidad de BNBs que ha invertido cada inversor en la preventa.\n    mapping(address => uint) public investorBalance;\n    mapping(address => uint) public withdrawableBalance;\n    mapping(address => uint) public claimReady;\n\n    constructor(address _teamWallet) {\n        owner = _teamWallet;\n    }\n\n    modifier onlyOwner() {\n        require(msg.sender == owner, 'You must be the owner.');\n        _;\n    }\n\n    /**\n     * @notice Funcin que actualiza el token en el contrato (Solo se puede hacer 1 vez).\n     * @param _token Direccin del contrato del token.\n     */\n    function setToken(IERC20 _token) public onlyOwner {\n        require(!tokenAvailable, \"Token is already inserted.\");\n        token = _token;\n        tokenAvailable = true;\n    }\n\n    /**\n     * @notice Funcin que permite aadir inversores a la whitelist.\n     * @param _investor Direcciones de los inversores que entran en la whitelist.\n     */\n    function addToWhitelist(address[] memory _investor) public onlyOwner {\n        for (uint _i = 0; _i < _investor.length; _i++) {\n            require(_investor[_i] != address(0), 'Invalid address.');\n            address _investorAddress = _investor[_i];\n            whitelist[_investorAddress] = true;\n        }\n    }\n\n    /**\n     * @notice Funcin que inicia la Preventa (Solo se puede iniciar una vez).\n     * @param _presaleTime Tiempo que va a durar la preventa.\n     */\n    function startPresale(uint _presaleTime) public onlyOwner {\n        require(!presaleStarted, \"Presale already started.\");\n\n        ending = block.timestamp + _presaleTime;\n        presaleStarted = true;\n    }\n\n    /**\n     * @notice Funcin que te permite comprar MYMs. \n     */\n    function invest() public payable nonReentrant {\n        require(whitelist[msg.sender], \"You must be on the whitelist.\");\n        require(presaleStarted, \"Presale must have started.\");\n        require(block.timestamp <= ending, \"Presale finished.\");\n        invested[msg.sender] += msg.value; // Actualiza la inversin del inversor.\n        require(invested[msg.sender] >= 0.10 ether, \"Your investment should be more than 0.10 BNB.\");\n        require(invested[msg.sender] <= 10 ether, \"Your investment cannot exceed 10 BNB.\");\n\n        uint _investorTokens = msg.value * tokensPerBNB; // Tokens que va a recibir el inversor.\n        investorBalance[msg.sender] += _investorTokens;\n        withdrawableBalance[msg.sender] += _investorTokens;\n        tokensSold += _investorTokens;\n    }\n\n    /**\n     * @notice Calcula el % de un nmero.\n     * @param x Nmero.\n     * @param y % del nmero.\n     * @param scale Divisin.\n     */\n    function mulScale (uint x, uint y, uint128 scale) internal pure returns (uint) {\n        uint a = x / scale;\n        uint b = x % scale;\n        uint c = y / scale;\n        uint d = y % scale;\n\n        return a * c * scale + a * d + b * c + b * d / scale;\n    }\n\n    /**\n     * @notice Funcin que permite a los inversores hacer claim de sus tokens disponibles.\n     */\n    function claimTokens() public nonReentrant {\n        require(whitelist[msg.sender], \"You must be on the whitelist.\");\n        require(block.timestamp > ending, \"Presale must have finished.\");\n        require(claimReady[msg.sender] <= block.timestamp, \"You can't claim now.\");\n        uint _contractBalance = token.balanceOf(address(this));\n        require(_contractBalance > 0, \"Insufficient contract balance.\");\n        require(investorBalance[msg.sender] > 0, \"Insufficient investor balance.\");\n\n        uint _withdrawableTokensBalance = mulScale(investorBalance[msg.sender], 2500, 10000); // 2500 basis points = 25%.\n\n        // Si tu balance es menor a la cantidad que puedes retirar directamente te transfiere todo tu saldo.\n        if(withdrawableBalance[msg.sender] <= _withdrawableTokensBalance) {\n            token.transfer(msg.sender, withdrawableBalance[msg.sender]);\n\n            investorBalance[msg.sender] = 0;\n            withdrawableBalance[msg.sender] = 0;\n        } else {\n            claimReady[msg.sender] = block.timestamp + cooldownTime; // Actualiza cuando ser el prximo claim.\n\n            withdrawableBalance[msg.sender] -= _withdrawableTokensBalance; // Actualiza el balance del inversor.\n\n            token.transfer(msg.sender, _withdrawableTokensBalance); // Transfiere los tokens.\n        }\n    }\n\n    /**\n     * @notice Funcin que permite retirar los BNBs del contrato a la direccin del owner.\n     */\n    function withdrawBnbs() public onlyOwner {\n        uint _bnbBalance = address(this).balance;\n        payable(owner).transfer(_bnbBalance);\n    }\n\n    /**\n     * @notice Funcin que quema los tokens que sobran en la preventa.\n     */\n    function burnTokens() public onlyOwner {\n        require(block.timestamp > ending, \"Presale must have finished.\");\n        \n        uint _contractBalance = token.balanceOf(address(this));\n        uint _tokenBalance = _contractBalance - tokensSold;\n        token.transfer(deadWallet, _tokenBalance);\n    }\n}",
  "sourcePath": "C:\\Users\\Unai\\Documents\\01_CODING\\00_BlockChain proyectos\\JOAN - copia\\src\\contracts\\SecondPresale.sol",
  "compiler": {
    "name": "solc",
    "version": "0.8.6+commit.11564f7e.Emscripten.clang"
  },
  "schemaVersion": "3.4.3",
  "updatedAt": "2021-11-25T16:20:13.358Z",
  "networkType": "ethereum",
  "devdoc": {
    "kind": "dev",
    "methods": {
      "addToWhitelist(address[])": {
        "params": {
          "_investor": "Direcciones de los inversores que entran en la whitelist."
        }
      },
      "setToken(address)": {
        "params": {
          "_token": "Direccin del contrato del token."
        }
      },
      "startPresale(uint256)": {
        "params": {
          "_presaleTime": "Tiempo que va a durar la preventa."
        }
      }
    },
    "version": 1
  },
  "userdoc": {
    "kind": "user",
    "methods": {
      "addToWhitelist(address[])": {
        "notice": "Funcin que permite aadir inversores a la whitelist."
      },
      "burnTokens()": {
        "notice": "Funcin que quema los tokens que sobran en la preventa."
      },
      "claimTokens()": {
        "notice": "Funcin que permite a los inversores hacer claim de sus tokens disponibles."
      },
      "invest()": {
        "notice": "Funcin que te permite comprar MYMs. "
      },
      "setToken(address)": {
        "notice": "Funcin que actualiza el token en el contrato (Solo se puede hacer 1 vez)."
      },
      "startPresale(uint256)": {
        "notice": "Funcin que inicia la Preventa (Solo se puede iniciar una vez)."
      },
      "withdrawBnbs()": {
        "notice": "Funcin que permite retirar los BNBs del contrato a la direccin del owner."
      }
    },
    "version": 1
  }
}