{
  "contractName": "TeamVesting",
  "abi": [
    {
      "inputs": [
        {
          "internalType": "address",
          "name": "_teamWallet",
          "type": "address"
        }
      ],
      "stateMutability": "nonpayable",
      "type": "constructor"
    },
    {
      "inputs": [],
      "name": "claimReady",
      "outputs": [
        {
          "internalType": "uint256",
          "name": "",
          "type": "uint256"
        }
      ],
      "stateMutability": "view",
      "type": "function",
      "constant": true
    },
    {
      "inputs": [],
      "name": "cooldownTime",
      "outputs": [
        {
          "internalType": "uint256",
          "name": "",
          "type": "uint256"
        }
      ],
      "stateMutability": "view",
      "type": "function",
      "constant": true
    },
    {
      "inputs": [],
      "name": "teamWallet",
      "outputs": [
        {
          "internalType": "address",
          "name": "",
          "type": "address"
        }
      ],
      "stateMutability": "view",
      "type": "function",
      "constant": true
    },
    {
      "inputs": [],
      "name": "token",
      "outputs": [
        {
          "internalType": "contract IERC20",
          "name": "",
          "type": "address"
        }
      ],
      "stateMutability": "view",
      "type": "function",
      "constant": true
    },
    {
      "inputs": [
        {
          "internalType": "contract IERC20",
          "name": "_token",
          "type": "address"
        }
      ],
      "name": "setToken",
      "outputs": [],
      "stateMutability": "nonpayable",
      "type": "function"
    },
    {
      "inputs": [],
      "name": "claimTokens",
      "outputs": [],
      "stateMutability": "nonpayable",
      "type": "function"
    }
  ],
  "bytecode": "0x608060405262278d006003556000600560006101000a81548160ff02191690831515021790555034801561003257600080fd5b50604051610efd380380610efd833981810160405281019061005491906100b8565b600160008190555080600260006101000a81548173ffffffffffffffffffffffffffffffffffffffff021916908373ffffffffffffffffffffffffffffffffffffffff16021790555050610133565b6000815190506100b28161011c565b92915050565b6000602082840312156100ce576100cd610117565b5b60006100dc848285016100a3565b91505092915050565b60006100f0826100f7565b9050919050565b600073ffffffffffffffffffffffffffffffffffffffff82169050919050565b600080fd5b610125816100e5565b811461013057600080fd5b50565b610dbb806101426000396000f3fe608060405234801561001057600080fd5b50600436106100625760003560e01c8063144fa6d71461006757806348c54b9d14610083578063599270441461008d578063b319c6b7146100ab578063e83b416d146100c9578063fc0c546a146100e7575b600080fd5b610081600480360381019061007c919061081f565b610105565b005b61008b610244565b005b61009561063d565b6040516100a29190610955565b60405180910390f35b6100b3610663565b6040516100c09190610a54565b60405180910390f35b6100d1610669565b6040516100de9190610a54565b60405180910390f35b6100ef61066f565b6040516100fc9190610999565b60405180910390f35b600260009054906101000a900473ffffffffffffffffffffffffffffffffffffffff1673ffffffffffffffffffffffffffffffffffffffff163373ffffffffffffffffffffffffffffffffffffffff1614610195576040517f08c379a000000000000000000000000000000000000000000000000000000000815260040161018c906109b4565b60405180910390fd5b600560009054906101000a900460ff16156101e5576040517f08c379a00000000000000000000000000000000000000000000000000000000081526004016101dc90610a14565b60405180910390fd5b80600160006101000a81548173ffffffffffffffffffffffffffffffffffffffff021916908373ffffffffffffffffffffffffffffffffffffffff1602179055506001600560006101000a81548160ff02191690831515021790555050565b600260009054906101000a900473ffffffffffffffffffffffffffffffffffffffff1673ffffffffffffffffffffffffffffffffffffffff163373ffffffffffffffffffffffffffffffffffffffff16146102d4576040517f08c379a00000000000000000000000000000000000000000000000000000000081526004016102cb906109b4565b60405180910390fd5b6002600054141561031a576040517f08c379a000000000000000000000000000000000000000000000000000000000815260040161031190610a34565b60405180910390fd5b6002600081905550426004541115610367576040517f08c379a000000000000000000000000000000000000000000000000000000000815260040161035e906109f4565b60405180910390fd5b6000600160009054906101000a900473ffffffffffffffffffffffffffffffffffffffff1673ffffffffffffffffffffffffffffffffffffffff166370a08231306040518263ffffffff1660e01b81526004016103c49190610955565b60206040518083038186803b1580156103dc57600080fd5b505afa1580156103f0573d6000803e3d6000fd5b505050506040513d601f19601f82011682018060405250810190610414919061084c565b905060008111610459576040517f08c379a0000000000000000000000000000000000000000000000000000000008152600401610450906109d4565b60405180910390fd5b600061046a82610341612710610695565b905080821161054a57600160009054906101000a900473ffffffffffffffffffffffffffffffffffffffff1673ffffffffffffffffffffffffffffffffffffffff1663a9059cbb600260009054906101000a900473ffffffffffffffffffffffffffffffffffffffff16846040518363ffffffff1660e01b81526004016104f2929190610970565b602060405180830381600087803b15801561050c57600080fd5b505af1158015610520573d6000803e3d6000fd5b505050506040513d601f19601f8201168201806040525081019061054491906107f2565b50610631565b600354426105589190610a80565b600481905550600160009054906101000a900473ffffffffffffffffffffffffffffffffffffffff1673ffffffffffffffffffffffffffffffffffffffff1663a9059cbb600260009054906101000a900473ffffffffffffffffffffffffffffffffffffffff16836040518363ffffffff1660e01b81526004016105dd929190610970565b602060405180830381600087803b1580156105f757600080fd5b505af115801561060b573d6000803e3d6000fd5b505050506040513d601f19601f8201168201806040525081019061062f91906107f2565b505b50506001600081905550565b600260009054906101000a900473ffffffffffffffffffffffffffffffffffffffff1681565b60035481565b60045481565b600160009054906101000a900473ffffffffffffffffffffffffffffffffffffffff1681565b600080826fffffffffffffffffffffffffffffffff16856106b69190610ad6565b90506000836fffffffffffffffffffffffffffffffff16866106d89190610bdf565b90506000846fffffffffffffffffffffffffffffffff16866106fa9190610ad6565b90506000856fffffffffffffffffffffffffffffffff168761071c9190610bdf565b9050856fffffffffffffffffffffffffffffffff16818461073d9190610b07565b6107479190610ad6565b82846107539190610b07565b828661075f9190610b07565b886fffffffffffffffffffffffffffffffff16858861077e9190610b07565b6107889190610b07565b6107929190610a80565b61079c9190610a80565b6107a69190610a80565b9450505050509392505050565b6000815190506107c281610d40565b92915050565b6000813590506107d781610d57565b92915050565b6000815190506107ec81610d6e565b92915050565b60006020828403121561080857610807610c6e565b5b6000610816848285016107b3565b91505092915050565b60006020828403121561083557610834610c6e565b5b6000610843848285016107c8565b91505092915050565b60006020828403121561086257610861610c6e565b5b6000610870848285016107dd565b91505092915050565b61088281610b61565b82525050565b61089181610bbb565b82525050565b60006108a4601683610a6f565b91506108af82610c73565b602082019050919050565b60006108c7601583610a6f565b91506108d282610c9c565b602082019050919050565b60006108ea601483610a6f565b91506108f582610cc5565b602082019050919050565b600061090d601a83610a6f565b915061091882610cee565b602082019050919050565b6000610930601f83610a6f565b915061093b82610d17565b602082019050919050565b61094f81610bb1565b82525050565b600060208201905061096a6000830184610879565b92915050565b60006040820190506109856000830185610879565b6109926020830184610946565b9392505050565b60006020820190506109ae6000830184610888565b92915050565b600060208201905081810360008301526109cd81610897565b9050919050565b600060208201905081810360008301526109ed816108ba565b9050919050565b60006020820190508181036000830152610a0d816108dd565b9050919050565b60006020820190508181036000830152610a2d81610900565b9050919050565b60006020820190508181036000830152610a4d81610923565b9050919050565b6000602082019050610a696000830184610946565b92915050565b600082825260208201905092915050565b6000610a8b82610bb1565b9150610a9683610bb1565b9250827fffffffffffffffffffffffffffffffffffffffffffffffffffffffffffffffff03821115610acb57610aca610c10565b5b828201905092915050565b6000610ae182610bb1565b9150610aec83610bb1565b925082610afc57610afb610c3f565b5b828204905092915050565b6000610b1282610bb1565b9150610b1d83610bb1565b9250817fffffffffffffffffffffffffffffffffffffffffffffffffffffffffffffffff0483118215151615610b5657610b55610c10565b5b828202905092915050565b6000610b6c82610b91565b9050919050565b60008115159050919050565b6000610b8a82610b61565b9050919050565b600073ffffffffffffffffffffffffffffffffffffffff82169050919050565b6000819050919050565b6000610bc682610bcd565b9050919050565b6000610bd882610b91565b9050919050565b6000610bea82610bb1565b9150610bf583610bb1565b925082610c0557610c04610c3f565b5b828206905092915050565b7f4e487b7100000000000000000000000000000000000000000000000000000000600052601160045260246000fd5b7f4e487b7100000000000000000000000000000000000000000000000000000000600052601260045260246000fd5b600080fd5b7f596f75206d75737420626520746865206f776e65722e00000000000000000000600082015250565b7f496e73756666696369656e742042616c616e63652e0000000000000000000000600082015250565b7f596f752063616e277420636c61696d206e6f772e000000000000000000000000600082015250565b7f546f6b656e20697320616c726561647920696e7365727465642e000000000000600082015250565b7f5265656e7472616e637947756172643a207265656e7472616e742063616c6c00600082015250565b610d4981610b73565b8114610d5457600080fd5b50565b610d6081610b7f565b8114610d6b57600080fd5b50565b610d7781610bb1565b8114610d8257600080fd5b5056fea2646970667358221220aae36fbe47e790ec6ab9b1784b8dec941a10be39ac4978de9e9c787b50e09ed764736f6c63430008060033",
  "immutableReferences": {},
  "source": "// SPDX-License-Identifier: MIT\npragma solidity ^0.8.6;\n\n// Imports\nimport \"./Libraries.sol\";\n\ncontract TeamVesting is ReentrancyGuard {\n    IERC20 public token;\n    address public teamWallet; // Wallet del equipo.\n    uint public cooldownTime = 30 days; // Tiempo de cooldown que va a tener el claim.\n    uint public claimReady; // Guarda el tiempo en el que el usuario podr hacer el prximo claim.\n    bool private tokenAvailable = false;\n\n    constructor(address _teamWallet) {\n        teamWallet = _teamWallet;\n    }\n\n    modifier onlyOwner() {\n        require(msg.sender == teamWallet, 'You must be the owner.');\n        _;\n    }\n\n    /**\n     * @notice Funcin que actualiza el token en el contrato (Solo se puede hacer 1 vez).\n     * @param _token Direccin del contrato del token.\n     */\n    function setToken(IERC20 _token) public onlyOwner {\n        require(!tokenAvailable, \"Token is already inserted.\");\n        token = _token;\n        tokenAvailable = true;\n    }\n\n    /**\n     * @notice Calcula el % de un nmero.\n     * @param x Nmero.\n     * @param y % del nmero.\n     * @param scale Divisin.\n     */\n    function mulScale (uint x, uint y, uint128 scale) internal pure returns (uint) {\n        uint a = x / scale;\n        uint b = x % scale;\n        uint c = y / scale;\n        uint d = y % scale;\n\n        return a * c * scale + a * d + b * c + b * d / scale;\n    }\n\n    /**\n     * @notice Funcin que permite hacer claim de los tokens que se pueden claimear (8,33% cada mes).\n     */\n    function claimTokens() public onlyOwner nonReentrant {\n        require(claimReady <= block.timestamp, \"You can't claim now.\");\n        uint _contractBalance = token.balanceOf(address(this));\n        require(_contractBalance > 0, \"Insufficient Balance.\");\n\n        uint _withdrawableBalance = mulScale(_contractBalance, 833, 10000); // 833 basis points = 8,33%.\n\n        if(_contractBalance <= _withdrawableBalance) {\n            token.transfer(teamWallet, _contractBalance);\n        } else {\n            claimReady = block.timestamp + cooldownTime;\n\n            token.transfer(teamWallet, _withdrawableBalance); \n        }\n    }\n}",
  "sourcePath": "C:\\Users\\Unai\\Documents\\01_CODING\\00_BlockChain proyectos\\JOAN - copia\\src\\contracts\\TeamVesting.sol",
  "compiler": {
    "name": "solc",
    "version": "0.8.6+commit.11564f7e.Emscripten.clang"
  },
  "schemaVersion": "3.4.3",
  "updatedAt": "2021-11-25T16:20:13.367Z",
  "networkType": "ethereum",
  "devdoc": {
    "kind": "dev",
    "methods": {
      "setToken(address)": {
        "params": {
          "_token": "Direccin del contrato del token."
        }
      }
    },
    "version": 1
  },
  "userdoc": {
    "kind": "user",
    "methods": {
      "claimTokens()": {
        "notice": "Funcin que permite hacer claim de los tokens que se pueden claimear (8,33% cada mes)."
      },
      "setToken(address)": {
        "notice": "Funcin que actualiza el token en el contrato (Solo se puede hacer 1 vez)."
      }
    },
    "version": 1
  }
}